:020000041000EA
:1000000000B5324B212058609868022188439860DF
:10001000D860186158612E4B002199600421596104
:100020000121F02299502B49196001219960352056
:1000300000F044F80222904214D00621196600F024
:1000400034F8196E01211966002018661A6600F04E
:100050002CF8196E196E196E052000F02FF8012189
:100060000842F9D1002199601B49196000215960AB
:100070001A491B48016001219960EB211966A021F2
:10008000196600F012F800219960164914480160C1
:100090000121996001BC002800D000471248134993
:1000A000086003C880F30888084703B5996A0420EC
:1000B0000142FBD001200142F8D103BD02B5186610
:1000C0001866FFF7F2FF186E186E02BD00000240BE
:1000D000000000180000070000035F00212200005C
:1000E000F4000018222000A00001001008ED00E03C
:1000F000000000000000000000000000070B8FD58A
:1001000008190020BD2A0010C37C0010A92A001085
:1001100000000000000000000000000000000000DF
:10012000000000000000000000000000992B0010FB
:100130000000000000000000292B00107546001090
:10014000E92C0010E92C0010E92C0010E92C00101B
:10015000E92C0010E92C0010E92C0010E92C00100B
:10016000E92C0010E92C0010E92C0010E92C0010FB
:10017000E92C0010E92C0010E92C0010E92C0010EB
:10018000E92C0010E92C0010E92C0010E92C0010DB
:10019000E92C0010E92C0010E92C0010E92C0010CB
:0801A000E92C0010E92C00100D
:1001A80002B4714649084900095649008E4402BC08
:1001B8007047C04602B4714649084900095C4900C5
:1001C8008E4402BC7047C04603B4714649084000DB
:1001D8004900095A49008E4403BC7047002934D0AD
:1001E8000123002210B488422CD301242407A14201
:1001F80004D2814202D209011B01F8E7E400A142BE
:1002080004D2814202D249005B00F8E7884201D358
:10021800401A1A434C08A04202D3001B5C08224330
:100228008C08A04202D3001B9C082243CC08A042A1
:1002380002D3001BDC082243002803D01B0901D08D
:100248000909E3E7100010BC704701B5002000F071
:100258005FF802BD0029F8D003B5FFF7C1FF0EBC57
:100268004243891A1847C046002941D010B40400F7
:100278004C40A44601230022002900D54942002809
:1002880000D5404288422CD301242407A14204D23D
:10029800814202D209011B01F8E7E400A14204D21D
:1002A800814202D249005B00F8E7884201D3401A34
:1002B8001A434C08A04202D3001B5C0822438C0856
:1002C800A04202D3001B9C082243CC08A04202D3C0
:1002D800001BDC082243002803D01B0901D00909B0
:1002E800E3E710006446002C00D5404210BC70477C
:1002F80001B5002000F00CF802BDC0460029F7D077
:1003080003B5FFF7B3FF0EBC4243891A1847C0462E
:100318007047C046D0400B00D1409C46203AD3409D
:10032800184352426346934018437047D0400B002D
:100338001141203A03D49C46134118436346524264
:10034800934018437047C0469140030090409C4634
:10035800203A9340194352426346D34019437047A9
:100368001C2101231B04984201D3000C10391B0ADD
:10037800984201D3000A08391B09984201D30009A1
:10038800043902A2105C40187047C04604030202F8
:1003980001010101000000000000000010B5002963
:1003A80003D1FFF7DDFF203002E00800FFF7D8FF98
:1003B80010BDC046414208401C2101231B0498423D
:1003C80001D3000C10391B0A984201D3000A0839DE
:1003D8001B09984201D30009043902A2105C401A93
:1003E8007047C0461B1C1D1D1E1E1E1E1F1F1F1FE3
:1003F8001F1F1F1F002B11D1002A0FD1002900D168
:10040800002802D00021C943080007B4024802A10D
:100418004018029003BDC046F9FEFFFF03B46846CA
:1004280001B5029800F062FC019B9E4602B00CBC2C
:100438007047C0464A02F8B543024400C50F500A47
:1004480084464800240E000E5F0AC90F9B099209D2
:10045800261A8D4200D09EE0002E42DD8021C9047C
:1004680000281ED1002A0AD0661E012C05D19B182F
:1004780001340B4246D1013C01E0FF2C14D15A074C
:1004880004D00F221A40042A00D004335A0100D4A1
:100498002EE101340026FF2C19D09D4EDB081E40AA
:1004A80015E0FF2CEBD00A431B2E01DD0133E6E7F4
:1004B8002020801B11008240F140501E82410A43D7
:1004C8009B185A01DBD501340026FF2C1AD1FF23D3
:1004D800E005DB057602760A18403043ED0728432D
:1004E800F8BD002E2ED08026011BF604002C14D156
:1004F800002B00D1F3E04C1E01290AD19B180224DD
:100508003342B8D0012283491A405B080B40134399
:10051800B5E7FF2906D11300AEE0FF2800D1E0E0DF
:100528000C0033431B2C02DD531C0400A7E7190001
:100538002026E140341BA3405C1EA3410B4304006A
:100548009B18BEE7FE20611C01421ED1002C0DD174
:10055800002B00D1C7E0002A00D190E79B185A0170
:1005680000D48CE76C4A13400C0088E7002BD2D0EB
:10057800FF24002A00D182E78023DB039F4202D3B5
:100588009C4500D26746FB0076E00C00FF299ED010
:100598009B185B0873E7002E25DD00281CD1002A74
:1005A80000D16CE7661E012C06D19B1A5A0100D4B3
:1005B80065E79B019E0975E0FF2C00D15FE70121EB
:1005C8001B2E07DC2020801B11008240F140501EAA
:1005D800824111435B1AE9E7FF2C00D14FE78021E4
:1005E800C9040A43EBE7002E25D0051B002C0DD1CA
:1005F800002B08D06E1E012D03D10D00D31A013433
:10060800D4E7FF2D08D113002C0021E0FF286CD07F
:1006180080242E00E404234301241B2E07DC20251C
:10062800AD1B1C00AB40F4405D1EAB411C43131BCB
:100638000D000400BAE7FE26601C30422DD1002CC4
:1006480014D1002B06D125002600131E00D13EE749
:100658000D0014E7002A00D111E79E1AD31A700181
:10066800F6D4331E00D00AE7350030E7002B05D159
:10067800002A49D013000D00FF2400E7FF24002AB8
:1006880000D1FCE68023DB039F4200D27BE79C4538
:1006980000D378E767460D0075E79E1A700115D5F7
:1006A8000D00D61A3000FFF75BFE33000538834093
:1006B800844210DC2022001B0130121A19009340DA
:1006C800C1405A1E934100240B43D8E6002EE9D1BD
:1006D80035003400FBE6104A241A1340CFE6130015
:1006E80042E7130021E71300C9E613000400AFE74F
:1006F800DE08FF2C00D0EAE6002E00D1E7E68023D2
:10070800DB03FF241E43E2E680261500F603F6E726
:10071800FFFF7F1FFFFFFF7DFFFFFFFBF0B5C30F4C
:1007280085B0440245000F1C640A2D0E0393029302
:100738000AD0FF2D3BD08023E400DB041C430023B8
:100748007F3D019500930EE0012301940093002C56
:1007580009D02000FFF704FE431F9C4076235B422C
:100768001B1A019300957D027E006D0A360EFF0F5D
:10077800002E23D0FF2E2ED08023ED00DB041D4356
:1007880033007F3B002201980399C31A00987940EF
:100798008000104301380E2823D8FFF70BFD4D9930
:1007A80073999299734D4D9273616161530002235D
:1007B80001950093002CD6D00133C3E72B0001220A
:1007C800002DE0D02800FFF7CBFD431F9D40762386
:1007D8005B421B1AD6E733000222002DD3D0013228
:1007E800D1E764016D01AC4228D31A200122641BB1
:1007F8000126270052006400002F01DBA54201D822
:10080800641B324301380028F3D1601E844114432D
:1008180018007F30002838DD620704D00F222240FC
:10082800042A00D00434220103D5803318002B4A4F
:100838001440E508FE281DDD00250FE01B200022DE
:10084800013BD5E78023DB031C4203D01D4201D1C5
:100858002C00029780250299ED032543FF2009E02B
:100868000399009A022AE7D0032A2FD000252800EE
:10087800012ACDD16D026D0AC0052843C907084376
:1008880005B0F0BD2C003900ECE701220025121A52
:1008980028001B2AEEDC9E3325009C40D540631EB1
:1008A8009C4125436B0704D00F232B40042B00D019
:1008B800043580232800DB0418401D420BD1ED08C5
:1008C800D8E780240023E4030293C3E70291C1E739
:1008D80000252800CEE700250120CBE7FFFFFFF722
:1008E800F0B5C30F85B04702440002917F0A240E79
:1008F80003930AD0FF2C71D080227F3C260000236E
:10090800FF00D204174301930CE001233E1E01931C
:1009180008D03800FFF724FD7626431F9F40764213
:10092800361A0194029B5C025D00DB0F640A2D0EEF
:1009380002935AD0FF2D64D080232800E400DB0402
:100948001C437F3800230299039A4A408119019871
:100958008C46850001311D430A2D00DD78E0022D0B
:1009680055DC013D012D63D9250CA4B226003B0CB2
:10097800B8B246435C4368436B4300191F00330C0D
:100988001B189C4202D9802040023F181804B6B2B6
:100998008619B401601E84411B0CB60EDB19344362
:1009A8009B011C431B0168D5012360081C400443BC
:1009B80008007F30002862DD630704D00F2323403E
:1009C800042B00D00434230103D5803108003E4BAA
:1009D8001C40E508FE2833DD00254CE002232600F4
:1009E8000193002F9ED001338DE720000123002CB6
:1009F800A9D0FFF7B5FC431F9C4076235B42181A29
:100A0800A0E728000223002C9DD001339BE701209A
:100A1800A840A6250600ED002E4028421DD19025AD
:100A2800AD00284247D1B93DFF3D28429CD0029AEB
:100A3800022BD1D0032B42D000252800012BB7D19F
:100A48006D026D0AC0052843D207104305B0F0BDFA
:100A5800039A0F2D04D00B2DE9D03C00019BE7E74A
:100A68008023DB031F4203D01C4201D12700029AD6
:100A78008025ED033D43FF20E2E7614698E7012327
:100A880000251B1A28001B2BDADC9E3125008C4020
:100A9800DD40631E9C4125436B0704D00F232B4088
:100AA800042B00D0043580232800DB0418401D42A5
:100AB80007D1ED08C4E780273200FF03D8E72700F5
:100AC800D6E700250120BBE7FFFFFFF741024300FF
:100AD800C20F490A00201B0E7E2B03DD9D2B02DD71
:100AE800084BD0187047802000040843952B05DD7B
:100AF800963B9840002AF5D04042F3E79621CB1A5E
:100B0800D840F7E7FFFFFF7F70B503000400051E1C
:100B18000ED0C21785185540C40F2800FFF720FCD7
:100B28009E231B1A962B0ADC08282CD008388540EF
:100B38006A02D805520A1043E407204370BD992B76
:100B48001CDD05222900121AD14002001B329540F3
:100B58002A00551EAA4111430D002A000B4E3240AF
:100B6800690704D00F212940042900D0043251011B
:100B780002D59F2332401B1AD508D9E7421F052802
:100B8800EBD09540E9E79623D2E7C046FFFFFFFB8D
:100B9800002370B50400984209D0FFF7E1FB9E23BB
:100BA8001B1A962B08DC082829D0083884406402D0
:100BB800D805640A204370BD992B1BDD0200210073
:100BC8001B3291400A00511E8A410521091ACC4066
:100BD800144322000B4D2A40610704D00F21214005
:100BE800042900D00432510102D59F232A401B1A40
:100BF800D408DCE7421F0528EBD09440E9E79623A8
:100C0800D5E7C046FFFFFFFBFE2270B54400240E67
:100C18004302611C5D0AC60F11420DD0E02292000A
:100C2800A4181B0B6D071B031B0B2405F6071C439D
:100C380034432800210070BD002C18D12300002D5A
:100C4800F1D02800FFF78CFB0A280ADC0B232A00C6
:100C58001B1ADA401300020015329540094C241A79
:100C6800E1E703000B3B9D402B002500F6E7002D34
:100C780006D01A0B80231B036D071343024CD2E7DF
:100C88002B00FBE789030000FF0700000023C25C7C
:100C98000133002AFBD1581E7047F7B5040C0D002C
:100CA80091B20F0061438C460600019383B2100C89
:100CB8005F43444358433B0C60441B18994202D994
:100CC800802149026418019955437143180C04198D
:100CD8001B04BFB24919D819091903B0F0BD10B5E2
:100CE800002802D0FFF766FB013010BDF0B5060002
:100CF8000F0015001C0085B08B4263D801D18242D9
:100D080060D821002800FFF749FB39000090300027
:100D1800FFF744FB009B21001B1A1A0028000393CD
:100D2800FFF712FB00900191B94245D801D1B042BA
:100D380042D8009B019C01200021039AF61AA74182
:100D4800FFF702FB04000D00039B002B2BD0019B37
:100D5800009ADB0750081843019B5908039B9C46DF
:100D6800B9422CD801D1B04229D832003B00121A1E
:100D78008B41012692185B410027B6185F41012379
:100D88005B429C446346002BEAD130003900039A49
:100D9800FFF7C0FA039AA4197D4106000F00FFF778
:100DA800D3FA241A8D410A9B002B01D01E605F6084
:100DB8002000290005B0F0BD00240025C4E7B619BD
:100DC8007F41DCE700240025EDE7000030B58FB057
:100DD80003A800F039F800282DDB04A800F088F8F3
:100DE800002828DB0A256D442900039805AA00F08D
:100DF80057F8041E1AD10598FFF706FF02000B00EA
:100E08000020295E0D4806F08CFB0598FFF7FCFED4
:100E18000B4D009001912A00202106A804F0F8FE4D
:100E280023002200049806A906F04AF90021054883
:100E380004F02AFBD6E70FB030BDC0465694001028
:100E4800749400101027000010B504000F482060AB
:100E580007F031FB002806D113240D4806F061FB8A
:100E68006442200010BD206883680A491B689847BF
:100E7800041E04DA2100084806F053FBF1E70221BA
:100E8800064806F04EFB0024EBE7C046B88B00107E
:100E98007B9400105094001098940010BE94001099
:100EA80070B50E00150083680C495B689847041EEE
:100EB80005DA21000A4806F034FB200070BD094B12
:100EC80000240020185E3080FFF71EFE0649FFF759
:100ED80007FD0649FFF722FC2860EEE7A000002086
:100EE800DD940010FC0800203333534000F07F45A8
:100EF80070B506000D4D0E48286007F0DCFA002892
:100F08000FD0286800F0BEFE041E0DD1286806F038
:100F1800B2F80121286800F051FE2B6833602000E8
:100F280070BD13246442FAE70524FBE7D0070020CC
:100F3800F88B0010F0B597B0059304230B921A4074
:100F48000B9B0A92DA0807231A40013207001C9DFE
:100F580003910D92820700D0C5E1041D002804D03A
:100F6800072909D81C20404254E1039A1A4013006B
:100F7800A4180822D31A0393059B0426013B069361
:100F8800002309930C9304930293013B0793019662
:100F9800002F01D0059B23600D9B002B00DDF1E0A5
:100FA8009D4B059A9A4203D39C4B9A4200D2E9E0A2
:100FB8000B99E21B9308890700D50DE1049A0F2AC3
:100FC80000D9BBE0002F00D10EE104990EAA5354BA
:100FD8000A00079912AB99540C9B01330C93F4E067
:100FE80008260196069B01330693069B98780028ED
:100FF80000D105E1029B002B08D12528F2D1079BDF
:1010080001330793012302930426EAE77A284AD892
:101018004B280ED8472846D829282CD825283FD031
:1010280041D82028DED0233843425841C3B2029326
:10103800D8E74C382E2836D8FFF7B2F8D4353535EE
:101048003535353535353535373535353535353546
:101058003561353737616161D437D235D4351837C2
:1010680018353579E63735353735E60000230893E6
:101078000426029327E0012213002A38C0B28340D5
:1010880067490B42AED1E2211800890508400B429E
:1010980035D11900114002911342A3D0089013E0F2
:1010A800079B013B07930023C1E70022069B089298
:1010B8005B7802926C2B07D10426069B01961B785D
:1010C8006C2B01D1B6190196013CA0193100FFF72C
:1010D80085F870430400002F3BD0019B039ADB1B6B
:1010E8001B18934200D93DE7089B002B41D1019B77
:1010F800042B20D108CD03600423043415E0072114
:1011080007358D4364188C430CCD002F08D001316E
:10111800C91B03980919814200D923E7226063603B
:101128000023082602933300083401935AE7029BF0
:10113800089300239CE7019B082B01D0162012E797
:10114800072307359D430CCD02604360082308340C
:10115800EBE7089B002B0CD1019B042B01D1043534
:10116800CAE7019B082BE9D10735013B9D430835A8
:10117800ECE7069B023306930D9B013B0D9308CDCC
:10118800059305E70B9B9B0722D50121E21B9308DA
:10119800802080008242D1D2049A0F2ACED8002F14
:1011A8001CD00498DBB20EAA13549C46079B12AAC3
:1011B8001354002900D10FE780226346524213439B
:1011C8000EAA1354099B01330993049B013304931A
:1011D800069B0434013B07E70021D9E7002903D027
:1011E800039B01330393F0E7039B023303930A9BAA
:1011F800002BEAD10598FFF749FD039B1B18F1E77F
:101208008022E31BD200934298D2002F0AD1039880
:101218000838C01817B0F0BDD88A001064D2001082
:10122800DAFF00009B08302238603B706B469B1841
:101238000A9A1B78002A0BD0FB70099BBB70002B05
:101248001BD100250EAE049BAB421BD1E01BE1E78E
:101258007B70F2E70EADED560EA9595C002D07DA4A
:10126800039E15190140B54200D97BE6217001346F
:10127800013304999942EDD1E3E7012200237F204D
:10128800D21BF6E7099B002B02D033787F2B1BD8A3
:101298000A9B002B1BD012ABEB5C2370002301349C
:1012A80001930123019ADB1B1B199B18039A934294
:1012B80000D957E63378019A237001342000059944
:1012C80007F070FA019B1C1901350136BBE733782A
:1012D8009B00FB181A6805920A9A05981A60FFF78E
:1012E800D5FC431CDCE70E203DE6C046F0B59BB0BC
:1012F80000AF3B628023FB181B6806001B07DB0F4F
:101308007B618378F9623A63BB6300290AD1047868
:10131800BB6BA400E41845780419FB6A9D421BD8EE
:10132800A31BFB62F378BB61BB6B002B04D080234B
:10133800FB181B68DB0719D4BB69002B47D13B6B33
:10134800002B03D030003A6AF96A9847FB6AFB63BE
:10135800BD46F86B1BB0F0BD01342000FFF796FCCA
:10136800FB6A013001332418FB62D6E73378FB614E
:101378009B007B627368BB627B6AF5183B6B002B32
:1013880000D029E1FB6AFB63BB6BEC180023BB634D
:10139800A54232D02B789B009859FFF777FC84211F
:1013A8007B181B680130002B0CD08822BA18BB6B45
:1013B8001268934206D27A1812685B009852BB6B87
:1013C8000133BB63FB6B01351B18FB63E0E780232C
:1013D800FB181B689B07B2D53378FB619B007B62C7
:1013E8007368BB627B6AF5183B6B002B77D1FB6A8D
:1013F800FB63BB6BEC183B6BBB6380220523BA18FD
:101408001268250013405A4253410133FB62BB69FD
:101418005B00E3183B633B6BAB4299D02B787B6353
:101428006B789B009C59B84B9C4202D3B74B9C42AB
:1014380023D37B69002B33D0796BB86A06F04AF85E
:1014480000282DD06C468AB06A46B14B5361BB6AFE
:1014580093617B6BD36180239B001384AD4B136135
:1014680092210023AC481032890100F019FFA546EB
:10147800FB6B023BFB630235CDE77B69002B05D094
:10148800796BB86A06F026F80028DBD180230122A0
:10149800FB181B68134209D1FB6BFA6A9B1AE9E730
:1014A80080230222FB181B681342E4D02000FFF7B8
:1014B800EDFB84217B181B68002B0DD08822BA18FD
:1014C800BB6B1268934207D2791809685B00421C0B
:1014D8005A52BB6B0133BB63FB6B1B18CAE7BB6B70
:1014E8001C1E7B6315D0802104237A1812681A40C9
:1014F80014007A637A1812681A420AD00023BC6B67
:101508007B63183340229B182900BA6BD81907F05F
:1015180049F9BB6BEB18FB60FB63BB695B003B6184
:101528003A69FB68944663447B60FB6B7A68934234
:1015380057D17B6B757800215A198023FB181B68DB
:10154800D2B29B0700D461088020381800680023B5
:10155800C00705D48033FB181B685B07DB172340E3
:101568007270B370F17030003A6A796A3B6B9847D1
:10157800F863002800DAEBE6FB6940203370BB6BA8
:101588002100B370BB693A6AF37018231B18D81985
:1015980075703B6B9847041E00DAB1E0FB6ABA6BC2
:1015A800F868991A7B6A3A6AC91A3B699C46C91A4B
:1015B80060443B6B9847002800DAA3E00025FB6BEA
:1015C8001C192318FB637B6B9D4261D300213A6A87
:1015D80008003B6B9847BBE6BB6B00247B63082382
:1015E80090E7FB6B484A1B78BB60FB6B5D78AB00F0
:1015F8009B59934202D3454A93420CD37B69002BF3
:1016080030D0B968B86A05F065FF00282AD0FB6BAE
:101618000233FB6389E77B69002B05D0B968B86A98
:1016280005F058FF0028F2D180230122FB181B681F
:1016380013420AD07B6B9B18073240215218796BF2
:10164800D219DBB255547B63E1E78023FB181B6892
:101658005B07DCD5182240215218631CD219155596
:10166800DCB2D4E780230222FB181B68134203D0A4
:101678007B6B06320133E0E7402118225218B96823
:10168800631CD2191155DBB20234E4B2D554BEE75B
:10169800402208239B18DB19EB5C0732BA18137039
:1016A80084229B009B59BB63BB181C68002C09D083
:1016B8008823FB181B6800249D4203D2BA181268BD
:1016C8006B00D45A47230121F8183A6A3B6B9847B4
:1016D800002817DBFB6B1B18FB63002C04D1B86BCD
:1016E800FFF7D4FA013084B221003A6AB86B3B6B39
:1016F8009847002806DBFB6B01351B18FB6362E784
:10170800F86325E6F86323E6D88A001064D200104F
:10171800F394001004000001DC8D0010014B1860E8
:101728007047C046B4000020F7B504000D001E0045
:10173800019203F0EFFE030007F0C0F9054F3200F5
:101748003B5001992800A04707F0B8F9385801F034
:10175800CBF9C0460800000010B503480221034A2F
:1017680006F0EFF9002010BDE48D0010AB950010D5
:1017780000220749C8890B8A4343DB089A4200D3F1
:1017880070470868835CDB4383540132F2E7C04644
:10179800D4070020F0B597B01393C04B08929A680D
:1017A80005000C00002A00D1C8E11968002900D101
:1017B800C4E10C211B7D4B43D3180C939B795B0729
:1017C80007D0B748B74A0B3906F0BBF91620404294
:1017D80009E0FFF75BFA2B1805951593159B059AF9
:1017E800934202D1002017B0F0BD0C9BAB4A5B7945
:1017F800D1891B198B4209DD139B002B06D00024CD
:101808000C9B08999B795B181BB208931523A1B20E
:10181800557BD3560B9169460C24098C1193129170
:10182800117D976804220120012661437F183979C8
:10183800059B1140023A2A4007910A921B78FA79CF
:101848007C79B9792840354200D101E10798451ED5
:10185800A841C0B20E900A98451EA841C0B20F9088
:10186800934202D3387A984200D220234C439A1AE2
:10187800E40862433B689B180493002B07D00B9B3A
:101888000693002309937B79099A9A4208D3119AFF
:101898009B180B9AD3181CB2059B013305939DE73F
:1018A8006B46002618229B5E1493BB790A939E42CE
:1018B80007D3099B01330993069B01339BB2069317
:1018C800E1E7764A0699D38910938B420CD9129B8B
:1018D8009B199BB20D930B000D990B431BB2002B68
:1018E80002DB138A8B4201D80136DEE70722089B08
:1018F8002421134003936B465B1808991C78F3085E
:10190800DBB2114201D0002E17D10122390000921A
:101918000498220006F07FF8079B002B69D1082362
:10192800039A00029B1A1841C4B2FF20002E20D14E
:10193800FE3898400138904067E001223900009253
:101948000498220006F067F8330001220833DB0808
:10195800DBB20092050022003900049806F05BF81B
:10196800079B002B53D0039B2D0205431D41ECB26E
:10197800FF20039A0A9B9446072263441A400A925E
:10198800BB799B1B072B0FD8002A0DD0012393404E
:101998000799013BDAB2002904D008220A99521AA1
:1019A8009340DAB2104014406B4634229B5EDD0847
:1019B800109B6B431D00149BED18384B1B685A197C
:1019C8005B5D0D921093139B002B33D00E9B0F9AE7
:1019D800934224D1109B0D9A834313702F4B1B689D
:1019E8005A5D14435C55002E29D1039B0836F61A1C
:1019F8005BE7039B1841C4B2FF20002EB9D108232E
:101A0800039AFE389B1A98400138C0B2B1E7082300
:101A1800039A04022C439B1A1C41E4B2A8E705F080
:101A2800E7FF109B0D9A83431370200005F0E0FF39
:101A38000400D3E70E9B0F9A9342F6D1CEE7BB7909
:101A48009B1B072B01D908362FE70A9BF6182CE7B2
:101A5800934202D33D7A9D4200D2202361439B1AD0
:101A6800C9084B433A680025D3180993002B10D1B5
:101A7800119BC0180B9B1C1824B20DE70026129B63
:101A88005B199AB21BB20D9204937B799E420BD3D9
:101A98000135BB799D42F1D37879E9E7D407002075
:101AA800E48D0010BD9500100B9B9B199BB203930E
:101AB800039A0D9B13431BB2002B0BDB6A46204B8A
:101AC8000C21525EDC890692944203DD1B8A049A3B
:101AD8009A4202DB01350136D7E70021EBB20091CB
:101AE80009983900F2B205F096FF079B002B01D048
:101AF80005F07EFF072301222B409A401300034084
:101B0800DBB2002BE7D00720049A0D4B5443069A0A
:101B18001B68A418E4081A5D1919039B0A9C034062
:101B2800002C06D0C31A06389840030013430B70E4
:101B3800D1E70120984002430A70CCE7132046E61B
:101B4800D4070020F0B51C4B89B01A6804008768D8
:101B58000392002A2CD01622002502A952181580BB
:101B68005A6805AE0592DA89B280198A3281F18005
:101B78001A7B9B7D043A51424A419A420FD1FFF7A2
:101B8800F7FD039B200000932A0033002900BF685B
:101B9800B8470400FFF7ECFD200009B0F0BD039B37
:101BA8002A00009329003300BF68B8470400F3E710
:101BB80013246442F0E7C046D407002070B50A4BEE
:101BC800040018680D0000280BD000215A6806F0A0
:101BD800F2FD002D01D1002070BD2000FFF7B2FFFB
:101BE800F9E713204042F7E7D4070020002010B59A
:101BF800042907D808000C4BFEF7DCFA030507098F
:101C08001100188A10BDD889FCE7987CFAE75A7B3E
:101C1800188AD207F6D5997CFEF726FBF2E75A7B9D
:101C2800D889D207F7D5EDE7D4070020044BDA7C32
:101C38008A4202D900201975704716204042FBE7F6
:101C4800D407002010B50D48C07C884212D9002A5C
:101C580005D00C244C430A48001940791070002B19
:101C680001D1002010BD0C204143054A5218927939
:101C78001A70F6E716204042F4E7C046D407002061
:101C88003C8E0010F0B585B0836800AF39001B6A40
:101C980098471E481E4D0C21401BFEF79FFA1D4C0D
:101CA8006E4688B06A46E0741B4BC0B253611B4B4A
:101CB800D0619361042313618421002318481032F2
:101CC800890100F0EDFA08223B88B546E38178885F
:101CD800A27420823A7BA560002558432273BA6813
:101CE800C0106273A582A575606003F063FF206071
:101CF800A84207D02900626806F05DFD2800BD46AD
:101D080005B0F0BD0C204042F9E7C046608E0010D7
:101D18003C8E0010D4070020CD950010E4950010EB
:101D2800E48D0010F7B505000600002D01D1300044
:101D3800FEBD2800FEF73EFB01238340DA430E4F29
:101D480004019D433B1901931B7B0092002BECD0AF
:101D5800E3591B69002B09D1009B3C191E4063689D
:101D680004221968019805F0AFFEDEE73819984794
:101D78000028DAD1F0E7C0462C8E0010F0B500221A
:101D880089B00F490F4806F0A1FC0024002600275F
:101D98000E20C0220C4D03900696079728000B4B87
:101DA8000B490494029401940094920003F046F9BC
:101DB8000849280006F0CAFB200009B0F0BDC0465B
:101DC800E11D001018060020A0010020E5200010E9
:101DD80008090020CCCB001010B5024803F068F8C1
:101DE80010BDC0468C010020F7B500901F48019136
:101DF80005F049FE061E35D000252800FEBD237BD0
:101E0800002B11D02368DB68002B01D020009847F5
:101E180063689F7123681B69002B1BD163680422C8
:101E28002000196805F050FE01361034104B9C4212
:101E3800E5D3009B002BE0D0002DDDD02800FFF774
:101E480071FF019B0500002BF6D00021642003F0F0
:101E58001BFBF1E7200098470028DFD03B00B34088
:101E68001D43E1E705000127024CDFE7FC070020DE
:101E78003C8E00102C8E0010014B8000C05870471B
:101E88002C910010030010B50800002B05D0044A5F
:101E9800136000F0ABFC002010BD16204042FBE7A9
:101EA800B800002010B5054C2378002B02D1044857
:101EB80002F0FEFF0123237010BDC046FE0800207B
:101EC8008C01002010B50400074805F0DCFD002C4B
:101ED80003D00121054806F02BFC054806F002FC5A
:101EE800044802F0E5FF10BDF4070020F8070020C1
:101EF800180600208C01002010B50021014806F0CA
:101F080024FC10BDF407002070B5FFF7F5FF0500AD
:101F1800084C094B9C4200D370BD63685B79002B69
:101F280006D023685B68002B02D029002000984760
:101F38001034EEE72C8E00103C8E001010B5044CC7
:101F48000449200005F0F7FB034B1C6010BDC04698
:101F58003C01002018910010EC0700200023FA2112
:101F68000C4A10B513700C4A890013600B4A0C48D0
:101F78001360FFF787FFFFF7E1FF0A4B0A491800D4
:101F88008B4200D310BD1A1A5C68121101322271FB
:101F98001033F5E7FF080020F4070020F8070020B9
:101FA800997A00102C8E00103C8E001010B5044C4D
:101FB800010000220023200005F0DEFB10BDC04612
:101FC8003C01002010B5024805F070FC10BDC04669
:101FD8003C01002010B5034B0100186805F0B7FC60
:101FE80010BDC046EC07002010B5024805F0E8FC1B
:101FF80010BDC0463C01002070B5204B1878002861
:1020080026D0FFF7DFFF1E4C051E2CD11D4B1E4CA2
:102018001B68002B11DD06F055FB0A220023FEF792
:10202800E9F922686368801A9941002903D1FA23E3
:102038009B00984201D9FFF767FF22686368FA207E
:102048000021800012184B4122606360FFF7CCFF2B
:1020580070BD63685B79002B04D0236829002000D9
:102068001B6898471034094B9C42F2D32800FFF7AD
:10207800B1FF0121064806F05BFBC7E7FE08002018
:102088002C8E0010F4070020100600203C8E001053
:10209800F807002070B50E4D297800290CD10120D1
:1020A800FFF7A2FE0B4C0C4B9C4206D3FFF7A4FF94
:1020B8000028FBD101232B7070BD63685B79002B6E
:1020C80003D0236820009B6898471034EBE7C0468C
:1020D800FF0800202C8E00103C8E0010F7B5002160
:1020E8000800FFF781FE041E2DD0FA2700267F0086
:1020F80006F0E4FC1C4B1D4A1B581360002B06D04D
:102108001B4B1B68092B02DD1A4802F0D1FE002385
:102118000093002C07D02000FFF704FE041E02D114
:1021280001277F423E00FFF767FF0190002808D192
:10213800009B114D002B13D10E483A00330002F0DA
:10214800E9FE019BE4E701277F423E00D0E72B68C8
:102158009B69002B03D000222800110098471035F6
:10216800064B9D42F3D3E7E708000000F007002084
:10217800F80700208C0100202C8E00103C8E0010E7
:1021880013B5154805F07FFC144B1B78002B0AD0BB
:10219800EFF3108472B6FFF72FFF002C02D162B65E
:1021A800BFF36F8F13BD0E4B1B68002BFAD00028AE
:1021B80009D1002200230B480092019300230A4A08
:1021C80003F0C4FCEEE70928ECD1064806F08AFAC9
:1021D800064802F06DFEE5E7F8070020FF0800203A
:1021E800F007002018060020102700008C010020AE
:1021F80010B5064B04001B6898472100A0600448EE
:1022080005F038FBFFF7BCFF10BDC046B800002042
:102218003C010020044B054A00209B1ADB08994228
:1022280001D2C900885870472C8E0010D48D001038
:10223800F0B55E1C85B0B500009028000723173064
:102248009843033080080F000192FFF7AFFE02ABFE
:1022580004000322581D002106F0ADFA03AB1E70DE
:10226800002C0BD0039B21002361002314312A1F6B
:102278000198C058C85004339A42F9D1E023BA01F2
:102288005B001A406D02054B2A431A4020000023C8
:10229800009905F03DFC05B0F0BDC046C0FF0F0039
:1022A800F0B591B004AF3B600B035B0D0D00786097
:1022B8007A613B610C0D002B00D173E0BB600026F6
:1022C80004237E62BE62FE6202931833FB180193F8
:1022D8000A231822009302339B18DB193200B968CD
:1022E8007869FFF703F88023F8601B01984224D32C
:1022F8007B696C461A795B798AB01B0213437A6949
:10230800927912041A437B69DB791B06134304AAEA
:102318009361294B2949D36180239B001384284B5F
:102328005161136192213300264810328901FFF769
:10233800B7FFA546BD460DB0F0BDFB6817345B0579
:102348005A0D3A61204A1B0B15401D43FB68E018E3
:102358000723984303308008FFF728FE041E15D092
:10236800030010337B62FB68FE62BB6204230293A6
:102378001833FB1801930A231821009302335B18C2
:10238800124AB9687869DB19FEF7B0FF3B690E4A53
:102398005B0215401D432A0020003B68796805F060
:1023A800B7FBC7E72000072317309843033080089E
:1023B800FFF7FCFD0400E9E7FF070000E1CB001090
:1023C80004000001FC8D0010FF01F0FFE77A001007
:1023D800F0B587B00E9F0400150002910393002FFB
:1023E80015D00F9B10210593009300203B000D9AF8
:1023F800FEF7A0FD802306001B01984208D30221A6
:10240800174A1848184B05F0A3FB07B0F0BD3E006B
:10241800072322000C9C1D401A40D2001734AD013E
:102428001543A0197202154398430C9A03301205FC
:1024380080081543FFF7BAFD041E09D0002F07D006
:102448000F9B310000930D9A3B001030FEF772FD90
:102458002A002000039B029905F05AFBD5E7C046E5
:1024680020CC0010FC8D0010FF07000040680028F9
:1024780004D0044BC01AC00800B270470120404283
:10248800FBE7C046D48D00100EB417B5054C05AB5C
:1024980004CB01002000019300F032FC1EBC08BCF4
:1024A80003B018479F7B001010B5CB0604D48906EB
:1024B80003D50349FFF7E8FF10BD0249FAE7C04614
:1024C80059CC001058CC0010F0B591B0079317AB59
:1024D8001B7804000D0006920593002B00D1B4E090
:1024E80002261B9B1B9A1E4001231A400C921B9A22
:1024F80007331A4008921B9AF8331A4009920027AA
:1025080005F0E0FA0200B84204D020008D49FFF738
:10251800BBFF0700002E09D044231B9A1A4235D16D
:102528002A0020008849FFF7AFFF3F180C9B002BBB
:102538000AD0059A854B9200D258002A00D1844AC5
:1025480020008449FFF7A0FF099B002B5AD0089B65
:10255800002B77D11D00069B002B05D01A00200008
:102568007D49FFF791FF0500189B7C48ED19002B6A
:1025780000D0BEE01A9B002B74D11B9BDB0700D553
:10258800DAE020001B99FFF78FFFBEE00020744BB4
:102598001E688642C9D0734B28001968FDF71EFED5
:1025A800FA253100FDF756FEAD0069430A90080090
:1025B8003100FDF74FFE0E91E1210D9009010A98B7
:1025C800FDF748FE0B910B983C21FDF707FEE12132
:1025D8000F9009010A98FDF701FE0A900E98310044
:1025E8006843FDF7FBFD0D9B02903C210B9801937E
:1025F800FDF730FE200000910F9B0A9A5A49FFF719
:1026080043FF92E7089B099D002B08D0059A574B7A
:10261800920020005649D258FFF736FF0500069B66
:10262800002B05D01A0020004B49FFF72DFF2D186D
:10263800079B002B98D01A0020004E49FFF724FF73
:102648002D1891E700230793E0E7079B4A48012BE1
:1026580000D14248189B059D002B4AD11A9B002B9C
:1026680053D000251A9F102F00D9102720001B993E
:10267800FFF71AFF0026B5424CDC199B20001A7898
:102688003E49FFF701FF012607231E4203D1200020
:102698003B49FFF7F9FEB74242D9199B20009A5DE2
:1026A8003649FFF7F1FE0136102EEDD10026200045
:1026B8003449FFF7E9FE3300199AD25C1300203B36
:1026C8005E2B00D92E2220002F49FFF7DDFE0136B0
:1026D800102E2AD007231E4203D120002849FFF7D5
:1026E800D3FE3300B742E7D820002549FFF7CCFED8
:1026F800EDE7189B2200254904F0B8FE1A9B002B31
:10270800B0D1059B002B00D037E7200005F037FA41
:1027180011B0F0BD20001A49FFF7B6FE0136AAE74E
:1027280020001B49FFF7B0FEBDE7199BDB19199381
:102738001A9BDB1B1A93E2E72000054A0549FFF7BD
:10274800A3FE1EE760CC001064CC00103C91001082
:102758005BCC0010CFD0001089CC00109F7B0010FC
:1027680004080020000800206DCC001050910010D3
:102778008DCC001093CC0010C57B001098CC0010B5
:10278800A0CC0010A2CC0010A4CC0010092D001081
:102798009ECC001073B5114A04000B0005689142E5
:1027A80000D91300052168460D4A03F031FA0600E6
:1027B800636828000B220B495B6805F0D1F9636850
:1027C8003200280069465B6805F0CAF9636828008A
:1027D8001B2205495B6805F0C3F973BD0F2700008C
:1027E800B4CD0010C3CC0010A7CC0010012310B545
:1027F80000211C00074A904207D8074A002900D147
:1028080001231360054B186010BD210040085B00D0
:10281800F1E7C04640420F000008002004080020ED
:1028280070B50D0004004618B44201D1280070BDEF
:1028380021780348013483685B689847F4E7C04609
:10284800788B0010F0B585B000AF0C1EB86036D09C
:102858006E468AB06D4609686268A3682B620523D4
:102868002048A9616861EA612B61A1212A001E48FC
:102878001032002389017A60F860FFF711FDB54630
:10288800E168AD46226963692B6205231748A9618F
:102898006861EA612B61A12100237A68F8688901DF
:1028A800FFF7FEFCB546E3690121114AF86805F017
:1028B8004FF9A36901210F4AF86805F049F9BB6887
:1028C800012B07D1EFF305830B4A0748B968103B82
:1028D80005F03EF92100B86802F068F9BD4605B078
:1028E800F0BDC04609CD0010148E001038CD001080
:1028F80067CD001076CD0010A4CD001030BFFDE7E5
:10290800F7B50A4B0A4D0600EF18CC1B2A00200029
:102918000849019305F046FF60190021019A05F066
:102928004AFF3800083C74660830FEBD0400000009
:1029380000000000608E0010054B5A699B689A429F
:1029480005D08023034A5B0551680B4353607047E9
:10295800D008002000ED00E0F0B53E4B8BB05B687E
:1029680000AF7B60DB05DB0D04003B6062B6BFF3A4
:102978006F8F394E130EFF2B08D1F33B1340082BF2
:102988003DD101213000354A05F0DBF800252C0047
:102998003B68032B39D1324A0121300005F0D1F8C8
:1029A800A369304A934202D32F4A934205D32F4A50
:1029B800934249D32E4A934246D2023B1A882D4B62
:1029C8009A4241D12368012130002B4A05F0C0F812
:1029D800266808232022F818210005F0E3FE7B6A08
:1029E800002D33D0DA0502D1244A13437B62082331
:1029F8003000F918FFF726FFBD460BB0F0BD0125E2
:102A08001207C5D50C000025C2E7F82279685200E4
:102A18001B4B114200D01B4B6A468AB07A606A464B
:102A280093613B681849103BD36180239B00138452
:102A3800164B516113619121002330001032890136
:102A4800FFF72EFC7B689D460026C2E75B0A5B0207
:102A5800CCE7C04600ED00E0148E0010E5CD001074
:102A680010CE0010A8010010D08A0010000000202D
:102A78000000002002DF000027CE0010FF01000048
:102A8800B7CD0010CCCD001043CE001004000001DB
:102A98000821024A53698B435361704700ED00E0F7
:102AA800EFF30880EFF3098101B57246FFF754FF91
:102AB80001BDC046094880F3088872B6084809492C
:102AC800401880F30988EFF314800221084380F34B
:102AD8001488BFF36F8F05F0FCF800000819002078
:102AE800080C00200008000010B50A4B9B688342C0
:102AF8000DD1EFF30583002B09D08022064B520538
:102B080059680A435A605A6A04490A405A6202F0EC
:102B180007FD10BDD008002000ED00E0FF7FFFFF9B
:102B280015498A6815481044EFF3098CF0C04346EC
:102B38004C4655465E466746F8C072B6104F114E71
:102B48004A698A603E60104C141920680F4C206056
:102B5800906E00239366002800D162B6074C1019C6
:102B68001030F8C89846A146AA46B346BC46243851
:102B7800F0C88CF309887047D008002030000000A6
:102B880004ED00E000000008640000002C080020AC
:102B980004207146014202D0EFF3098001D1EFF31E
:102BA80008808169023909780229FFD001B5724687
:102BB80005F07DF801BDC04643B2000605D41F22CA
:102BC8001A4001239340014A1360704700E100E076
:102BD80030B5FF2503220B00290040B20240D20085
:102BE80091409B012B40C943934000280ADBC02435
:102BF8000A4A800880008018A40002590A4013433A
:102C0800035130BD0F2210400838054A8008800063
:102C18008018C26911401943C161F2E700E100E080
:102C280000ED00E0FF22044B9343044A9360BFF396
:102C38004F8FBFF36F8F70470001001000ED00E069
:102C480010B5203A1360029B01245360039B064988
:102C58009360049BA143D36080235B04D36100236A
:102C680091610265836610BD3117001070B50B4B7A
:102C780015009860426E0A4B0E001A602C1C86F3F1
:102C880009880020034B9847201C002100220023BC
:102C9800014C2047F77C001031170010D0080020A5
:102CA8002C0800201022014B1A61704700ED00E04B
:102CB800F0B5C02400220326FF25A40010002F0031
:102CC8003040C0008740054993089B005B1819599C
:102CD8000132B94319511A2AF0D1F0BD00E100E0E0
:102CE80010B5EFF30583054A103BDB00D11849689E
:102CF80098588847FFF720FE10BDC046188C001072
:102D0800F0B587B007000E001400002110226846B5
:102D18001D0005F050FD6A4602239370054B2A00FA
:102D28002100684601930497059603F04DF807B013
:102D3800F0BDC046177D001010B5024B1B689847C0
:102D4800002010BD30080020034B044A18600223FD
:102D580091780B439370704730080020C40000201E
:102D680010B5044804F0DDFB62B6BFF36F8F04238F
:102D7800181C02DF56CE0010072310B50449054A77
:102D880099430548521A04F01BFB002010BDC046A9
:102D98000F590020002004203408002037B544686B
:102DA80005690021606801AA05F0CEF900280FDB4B
:102DB800019B00221979186805F0D9F9002807DB6A
:102DC800E068216983681B68002B02D158204042C3
:102DD8003EBD98470028FBDB6069A1698368DB6812
:102DE800002BF3D098470028F2DBA36898470E4BD6
:102DF8001A680E4B53400E4A13400E4A13600022C5
:102E08000D4B1A6101321A60FF3219681142FCD069
:102E180001229A61AB6C002B03D12800403002F0EC
:102E280047F80020D4E7C04608C004400700000166
:102E38000F00000F08D0044000C00440020070B525
:102E4800836E9C32136003009430016898331960D4
:102E580080210C4B09011960802104250A4CC90006
:102E680019601D6021601068FDF739FF074B0138B4
:102E78001B6800035840E023DB011840044B18602E
:102E8800256070BD08E0044000E0044000C0044034
:102E980000D0044010B540680A790078D306DB0EEC
:102EA800984207D80121104A104804F051FE8620A4
:102EB800404210BD4B88002B06D00D4A0B4801211B
:102EC80004F03FFE1620F3E72023100018401A42B2
:102ED80005D00121074A054804F033FEE7E70B78DF
:102EE800092BE6D0044AE9E75FCE0010D48D001024
:102EF8007BCE001099CE0010B7CE0010F0B5036954
:102F080085B0403304000D00039301225242D317C9
:102F1800039801F0FFFF2B7C6268591E24690B2976
:102F28000CD93D4A3D48012104F012FE8624644232
:102F3800039801F0BDFF200005B0F0BD6F6816785A
:102F4800002F1AD10122013EB24000233A4201D09B
:102F58000133DBB25208F9D12A685B00002A02D09B
:102F6800928901325343EA689A4211D201212C4ACC
:102F78002A4804F0E6FD0C24D9E73800FDF7F0F9FB
:102F880020231B1AB342DDD9264A3B002348CAE74F
:102F98002300AA6894331A602A00303B43CA43C30B
:102FA800002603CA03C326662B68B3422FD022002B
:102FB800783223CB23C21B682500136023007833A3
:102FC80063661E82A36F0835B34220D0310020000B
:102FD80005F0BBFB310063220023A06F8018594124
:102FE80064220023FDF706FA00220090002328003F
:102FF800019102F0ABFD200001225242D31750305C
:1030080001F088FF002800D02066246E90E7200099
:10301800FFF714FFEFE7C046C9CE0010D48D0010AB
:1030280008CF0010E3CE00108021F8B5344D0469B4
:103038006A682B6892B25B045B0F4900AE680E4267
:103048000AD02968890509D505235B422366200033
:10305800503001F02DFF38E0EE68EFE72600943697
:1030680031688F1C37600A80012221009A409C3108
:103078000B6893430B6031D1636E002BE7D02500BA
:10308800E36F88352A88002B05D0383998470128FE
:103098000AD002281AD0220084322B8812889A4239
:1030A80014D901332B8003E0230098331B68336065
:1030B800A36F002B03D12000FFF7C0FE05E001211C
:1030C800200005F035FB0128F5DCF8BDA36F002BC7
:1030D800BDD02000083005F005FBB8E71800FDF763
:1030E800FEFD01382B68C0B200035840E0230422DB
:1030F800DB011840034B1860034B1A60E5E7C04634
:1031080000C0044000D0044000E0044049B24368D5
:10311800102916DC0A290BD00B2910D00C224A439F
:103128001B689B18802292019B188022120103E0E1
:103138009B68054A9B182D2200201A607047DB689F
:10314800F7E716204042F9E70430000049B2436827
:10315800102916DC0A290BD00B2910D00C224A435F
:103168001B689B18C02292019B188022120103E061
:103178009B68054A9B182D2200201A607047DB685F
:10318800F7E716204042F9E704200000802310B535
:10319800084A5B041360084A94691C4202D016204E
:1031A800404210BD01609269100018401A42F8D0E0
:1031B800F5E7C0461830064000000640030010B589
:1031C80008000B2907D8FCF7F5FF0909090912209F
:1031D800282C2C2C33330120404210BD1A680C23B4
:1031E8004B439B58134ADB051B0FD056F5E7124A91
:1031F8000E201368116803220C0014401142ECD011
:103208000E4A0238022CEED1E7E70D4A0420136873
:1032180012689207E1D00B4AE5E70B4B0B4A1B6893
:10322800E1E70C234B430A4A9B181B68094ADAE773
:103238000C20D2E749CF00103080004046CF001064
:103248003C80004040CF00104880004039CF00103B
:103258000080004033CF0010F8B506000C007568F8
:1032680021002800376904F078FD002800D16DE0BE
:103278000E2C00D96AE02000FCF79CFF080808081B
:1032880008082A08080830306A6266002100280009
:103298002F68FFF793FF01003000FFF7DDFF0C23D5
:1032A8006343FB185E68051C5868C0B2FDF770FCE4
:1032B8002849FDF733FA041C300AFDF769FC011CA4
:1032C800201CFDF7B7F8011C281CFDF727FAF8BDEC
:1032D80006212800FFF772FF0400C0E70A2C2DD151
:1032E800AF6821002800FFF769FF01003000FFF7F1
:1032F800B3FF061CB868FDF74BFC311CFDF7F0FA6C
:10330800061C3F203D68FC682840FDF741FC011C75
:10331800301CFDF703FA0725061C200C2840FDF792
:1033280037FC011C301CFDF7F9F9FF68041C380B49
:103338002840FDF72DFC011C201CC6E7EF68D0E7EC
:103348003868FDF725FCC2E77868FAE70020BEE791
:103358000148BCE700007F43001B374BF0B54468C9
:103368008FB0A36822220393E3685F4905A80493FA
:103378002568276905F016FA5C4B5D4A1A605D4BB3
:103388005D4A13601E005D4A12689643FAD10C210B
:10339800300001F017FBAE6701F000FB0321584B2A
:1033A800DA6B8A43DA635A6C012AFCD103211A6B5F
:1033B8008A431A639A6B012AFCD1E269514B03983C
:1033C8005A43636A0093236AA16901F081FAE26AA9
:1033D8004C4B04985A43636B0093A16A236B01F02A
:1033E80077FA112105A804F002FD730005AA995681
:1033F800C8B2092867D90136112EF6D1C0239B011E
:10340800EA1880231B0113603F4A3800AA1813608A
:103418003E4A1430AA1813603D4AAD182B602300A9
:10342800AA25D83319682D012943FFF7AFFE0028D4
:1034380055DB2300DC331B68364938001943FFF796
:10344800A5FE00284BDB2300E0331B68002B48D087
:1034580029001F2B00D8591938001030FFF796FEA5
:1034680000283CDB2600E43631682B4D89B229431D
:10347800381DFFF78BFE002831DB38003168083033
:10348800090C2943FFF782FE002828DB234B1A4A40
:1034980013601A4B1B68DB43DB01DD09002BF8D1F5
:1034A8002900606902AA04F04FFE002807DB029B8E
:1034B8002A001979186804F05AFE002801DA831CDA
:1034C8000DD100200BE0090161180B6C00934B6CC7
:1034D800CA6B896B04F0C0FF00288CD116380FB076
:1034E800F0BD0F49B8E7C046608E001000E000400C
:1034F800BFCDFBFEFE7F3C0000F0004008C000404E
:1035080000800040001BB7000C300000183000009D
:103518002430000000B0FA0000009696FFFFFF017B
:10352800A10A000010B5084804F0C5FF002808D01B
:10353800064C2000FFF708FC2000FEF7EFF80020FB
:1035480010BD13204042FBE7788B0010593500105E
:1035580070B50400074D0A2804D1AB680D21280076
:103568005B689847AB6828005B68E1B29847200021
:1035780070BDC046788B001010B504480221044A7B
:1035880004F08BFC8620404210BDC046248E0010FB
:103598006ECF00100300F7B519790068DB888268E0
:1035A80094460269DC0715D4B02464032343012739
:1035B8003D000A4C16681C408D4001943400AC4311
:1035C8003B4201D034002C43634614601B68019AC7
:1035D8009847FEBDD02464036340E8E7FFFFEFFF90
:1035E800F0B51C0085B001911B89A18806004768C9
:1035F8008B4208D2424A0121424804F04EFC012085
:10360800404205B0F0BDE08805004D43844620687F
:10361800ED100095854200D900900A98002802D044
:103628000098002801D1384AE5E78B4201D9374A8A
:10363800E1E7072315001D401A4201D0344ADAE7B2
:103648003B00403301981B784A371B18D008C0B29A
:1036580001903878DBB2002830D00F2202A91A4036
:103668000A701A0910230A9F13434B70E388DB087A
:103678009D4201D30020C4E75022019B52425B19AE
:10368800134302AA937030000123032202A904F015
:10369800E5FB031EB3D139003000A28804F0DEFB3D
:1036A8000028ACD1A388009AFF180A9B9B189F4258
:1036B80001D9184A9FE70135EDB2D7E702ACE370AC
:1036C800013B5B1820202371222362440199D21008
:1036D8002080013A0130A0706371A1710123E27169
:1036E80021000822300004F0B9FB0B4A031E00D069
:1036F80081E73000009A0A9904F0B0FB81E7C046E0
:1037080087CF0010248E0010A3CF0010C3CF001065
:10371800D4CF0010E7CF0010FECF001037B50C4B08
:1037280004001B78406801AD2B70836A002B07D01A
:103738000021283004F0F6FBC820002104F009FC21
:10374800012329001A00200004F088FB3EBDC04672
:1037580016D0001037B50C4B04001B78406801AD3B
:103768002B70836A002B07D00121283004F0DAFB84
:10377800C820002104F0EDFB012329001A002000D5
:1037880004F06CFB3EBDC04618D00010F0B545688B
:103798000400E86C85B000230A2200AFC117FDF7CA
:1037A8007CFA030084460E000B4302204042C117F6
:1037B800002B12D080216246330009068E4204D2C3
:1037C80090498E4204D1911C02D902228D4B52425B
:1037D80002204042C117801A994104F0BAFB63687D
:1037E80020001B6B9847061E1AD12000AB6B984728
:1037F8006C4688B06A46844B9061536180239B0075
:103808009383824B1361E2213300814810324901CE
:10381800FEF746FDA546163E3000BD4605B0F0BD94
:10382800AB6A002B0BD028002830FFF7B3FE061E2A
:10383800F2DBA86A04F03FFE764A00280ED02B6A15
:10384800002B12D028002030FFF7A4FE061EE3DB71
:10385800286A04F030FE002807D16F4A01216C481D
:1038680004F01BFB13267642D6E7A42365683B7158
:103878002B0048331B782169002B30D0A722042362
:103888007A710B70AB6A002B08D028000121283010
:1038980004F048FBC820002104F05BFB2B6A002BD6
:1038A80011D02E0020360121300004F03BFB0A2005
:1038B800002104F04EFB0021300004F033FB0A2005
:1038C800002104F046FB2000FFF728FF002809D05C
:1038D8000121524A4E4804F0E0FA0526C3E7A62221
:1038E8000223CDE74E4A63683A81D922BA721A0098
:1038F800443212784933FA72DB223A731A78202359
:10390800002A00D0143308217B73062201232000EB
:10391800791804F0A3FA0028DAD16368414A3A8199
:103928001A0042321278BA72DA22FA721A00473250
:1039380011781222002900D0103A3A73A8220821DF
:103948007A7343331B782000BB73A13A012379189B
:1039580004F084FA0028BBD163681A004532127853
:103968004633603A3A721A78C023002A00D00833E6
:1039780008217B72022201232000791804F06EFAD4
:103988000028A5D149352B78002B24D163684A3308
:103998001B78002B33D18D22143308217B723323FB
:1039A8003A72BB7203222000323B791804F056FAAF
:1039B80000288DD163681C4A50333A811B78002B4C
:1039C80009D00821012302222000791804F046FAC0
:1039D800002800D07CE7012302222000391D04F0D2
:1039E8003DFA002800D073E78021200004F03BFA5C
:1039F800061E00D06CE72000FFF7ACFE0CE7AD22F6
:103A08008B23CAE7FFFFFF7F1AD0001003000001D5
:103A1800248E001033D0001050D000106CD000104D
:103A2800D580FFFF40D3FFFFAD300000D0231B0639
:103A38001B685A4253412F225B429343064A9B1804
:103A48001A001068002804D10432D11A0C29F8D9B8
:103A580070470120FCE7C04650410140F7B50369B3
:103A680007000193D0231B061C68002563425C41B4
:103A78002F2364429C43174BE4180722EB080833B2
:103A88009B001B592A409200D3400F22134203D1B6
:103A980001351E2DF1D1F7BD0F21280001F03AF8AC
:103AA800019B59680029F3D00123AB400E680093AD
:103AB8000029EDD08B68009A00981A40034202D082
:103AC80038004B689847331E00D0336831001E0019
:103AD800EEE7C04630410140F8B50D00141E0669F6
:103AE80010D11100280000F08DFF284BAD00EB1815
:103AF8001A6880235340C0221340254AAD182B6012
:103B08000020F8BD01275209210928003A40394010
:103B180000F078FF0521280000F05CFF80232100D9
:103B28005B0219401C421AD0D023AF401B069F628B
:103B3800A303E5D501200300F268AB40A10719D51E
:103B48001A43F260D0223169120665070BD5194372
:103B58003161A40C936104420AD05362D0E7280073
:103B680001F006F8E4E799433161E40C5361F2E7A8
:103B78009362C5E79A43F260D0221206210301D569
:103B88005361EAE76403E8D59361E6E704C00140BE
:103B980004D0014070B5436802690807400F013836
:103BA8001C68116203284DD8FCF704FB022131413F
:103BB8001025585F254D40192500A0352E68073679
:103BC800864201D328680830508612201B5EF533E0
:103BD800FF3328680530984201D32B68063300204C
:103BE8009BB21386236C10230B43136270BD102500
:103BF800585F25006D30A0352E680736864201D300
:103C080028680830508612201B5E5D33E1E71025D6
:103C1800585F2500A0352E681F300736864201D32D
:103C280028680830508612201B5E1F33D1E7100029
:103C38003D300078002805D01025585F25006D30EC
:103C4800A435D9E716204042CCE7C04671020000EF
:103C5800F7B5466805000469B069002807D1002156
:103C6800706901AA04F070FA002809DAFEBDF1694A
:103C78008368DB68002B56D098470028EFD0F5E71B
:103C8800019B00221979186804F071FA0028EDD117
:103C9800012201005242200004F045FC01222000CC
:103CA8001100103004F03FFC01216B681B68DA6ECC
:103CB8008A43DA661A00FC3211681C4A914202D023
:103CC80005204042D2E706271B6828003B40063BF8
:103CD8005A42534122003D32137073689847B368C3
:103CE800134A93420ED018D8124A043F934209D07F
:103CF800114A0237934205D00121104A104803F0B7
:103D080020FF00271021394328002162FFF742FFD6
:103D18000028D5D134342070A8E70A4A08279342EE
:103D2800F0D0094AE5E75820CBE7C04640015744A0
:103D380040420F00A0860100801A0600ACD0001097
:103D4800F48D001040E13300404B4C00F0B543685F
:103D580004691E6885B033008033F26A1B6800AFBF
:103D68000500BA60FB603434520639D5DB0719D533
:103D78002023227813436A46237088B07A60036848
:103D88006A46936180239B0032499383324B516189
:103D98001361E2210023314810324901FEF780FA0D
:103DA8007B689D46BB7B9B0719D5802223781343EC
:103DB8006A46237088B07A602B686A4693618023CC
:103DC8009B0027499383244B51611361E22100230F
:103DD800224810324901FEF763FA7B689D46736DED
:103DE80040237A7A1A4216D022786E4613432370FB
:103DF80088B02B686A46936180239B001949938396
:103E0800154B51611361E221002314481032490116
:103E1800FEF746FAB5461B2322789A4300239A42B6
:103E280014D06C4688B029686A469161802189005F
:103E38000D489183084950611161E2210748103209
:103E48004901FEF72DFA0523A5465B421800BD4639
:103E580005B0F0BDC7D0001003000001F48D0010BC
:103E6800D2D00010E6D00010FAD00010F0B54368A8
:103E780085B01B6806000193DB6A04690393019B04
:103E88001B68DB071ED5814A0399042311421BD006
:103E980034342370FFF75AFF0022736830691B68B7
:103EA8001A631B6C73681B7B5BB2934208DB1F327F
:103EB80013401E3A9A401300C022754952008B5095
:103EC80000F0F6FF05B0F0BD6A46157B039A082797
:103ED8001A420DD110210D422CD1039B9B05F1D51F
:103EE800019B1B6ED8E73000FFF730FF0028F1D1A7
:103EF800019B1B6F3B4213D0A36A002B10D0019B80
:103F0800626A1B69DBB21370636A01336362A36A76
:103F1800013BA362E36A013BE362A36A002BE2D19F
:103F2800A36A002BD6D122000221343213788B43A6
:103F38001370CFE7220073683C321F6801231078A2
:103F48009C46356918424AD1AB6A002B13D13B6BAA
:103F580034358B4361463B632B788B432B70A36AC4
:103F6800002BBAD113789B07B7D495E73000FFF739
:103F7800EDFE002831D102223B6F134205D1A36A1E
:103F8800002BAAD13C342378EDE7AB6A002BF6D09E
:103F9800290004206B6A3C311B780A78DBB20242A4
:103FA80005D08020C0000343042082430A70AA6A17
:103FB800012A08D12A0002213C3212780A4202D092
:103FC8008022920013433B61AB6A013BAB626B6A90
:103FD80001336B62FB6A5B06C8D5A36A5CE7AB6B0F
:103FE8000293002B03D13B6B8B433B63B7E73A004B
:103FF800F4321268BB6F11049446EA6A090E013163
:104008009A188A1A07D5A36A002B00D065E780079B
:1040180000D562E740E7029B786F8B4200D90B001E
:1040280061460902090E0131091A914200DD1100A9
:104038000291994200DD0293029B002B9FDD2A002A
:1040480004213C3213780B421CD08B431370A023FD
:10405800DB00022112780A4205D0AA6B012A02D19C
:1040680080229200134330003B61FFF76FFE002867
:1040780085D1EB6A0133EB62AB6B013BAB63029B0F
:10408800013BD8E780235B00E3E7C0464B400000D4
:1040980000E100E0F0B5002585B00600009101922E
:1040A8000393AA4200D105E1436804691F6823000D
:1040B8001033029301225242D317029800F02AFFCC
:1040C800051E00D0F6E0250034352B783F2B06D9A5
:1040D800306904F009F8002800D0EEE028703000BC
:1040E80004F024F81025002812D1220008233432C5
:1040F80011780B4313700122736831691B68DD6EF8
:104108009543DD6618630D6A186CE80602D4162517
:104118006D42C7E09026612036013043154201D038
:104128001822104307226D082A406E0778D4062605
:10413800354200D083E0012AE9D14D8E9D610D8E74
:104148005D6106255200A8431043002218609A6357
:10415800DA635A681868C00777D50398920A800509
:10416800800D92020243096AC80604D5C9076FD5B3
:10417800802149010A435A600122FB6E1343FB6602
:10418800009A009B52681B68002A04D1002B02D0B9
:104198000121009A5160220000203C3211786362AC
:1041A800009B5B68A362009B1B7A13705940E06216
:1041B8000130014202D004210B4313702600032171
:1041C800343633788B433370012312780239134025
:1041D8000A4240D132780A4332700122A3633B6815
:1041E80013423ED0364B3B63FA2200232000920054
:1041F80000F090FE051E37D03B68DB0708D5022388
:10420800FA6E1343FB660A220023200000F082FEA8
:1042180000233B633B6C200000F0A2FE742577E787
:10422800042A00D073E70A003D321278002A00D130
:104238006DE74A8E9A620A8E5A62032281E74A8E95
:104248001A620A8EDA6102227BE7039898608AE78D
:104258001C490A408FE70223327813433370A36A5C
:10426800BBE798239B00BEE70422337813420DD1A5
:10427800A36A002B0AD133781732934308D03378D6
:104288003F2B1AD8242332781A420BD005253FE752
:10429800009B0C330093019B013BDBB20193002B85
:1042A80000D06DE73F22343423789343237002987B
:1042B80000F0FEFD280005B0F0BD3E2528E7C04609
:1042C8005F020000FFEFFFFF01208840034B1B68DF
:1042D8000340591E8B4100201370704700C00040F6
:1042E80001238B40014A00201360704700E0004022
:1042F80001238B40034A0449136018000A6890435D
:10430800FBD1704700F0004008C0004001238B40FB
:10431800044A05491360054A136018000A68904367
:10432800FBD1704700E0004008C0004000F00040AA
:10433800436803491A68936B0B4093637047C04600
:104348007FF8FFFFF0B5436887B0049303690291D3
:10435800059203931B7A0500002B00D09FE0002AEA
:104368000BD00121049B1A68136B8B4313634368BA
:104378000F311A68D36A8B43D362EE226B681B68CD
:10438800DC6A9443029A1279012A06D0022A16D0CE
:10439800002A04D0862040426AE002221443029A8E
:1043A8005279012A03D0032AF4D105321443029A20
:1043B80090790328EED8FBF7FDFE0604181A0622AA
:1043C800ECE720221443029AD279002A11D0012A5C
:1043D800E0D18022196BD2010A431A636B681A680C
:1043E8008023116B1B020B430CE04022EAE760229A
:1043F800E8E71A6B2B490A401A636B682A491A685E
:10440800136B0B401363039B40267642F717D8685B
:10441800029B810E1A68800100231201FBF7EAFF54
:1044280000900191009A019BB6185F41002F34D18A
:104438001E498E4231D8019B69689806009B09681D
:104448009B0903434B623F216B68009A1B680A4033
:104458009A62BFF35F8F6B6802991B680398DA6AE8
:10446800DA626B6808221B68DC6204F09BF938008A
:10447800059B002B0FD0049B1B7F002B05D16B687D
:104488001A681023D16A0B43D3626B681A68012338
:10449800116B0B43136307B0F0BD16207BE7862032
:1044A8004042F8E7FFBFFFFFFF7FFFFF80FF3F00AD
:1044B800F7B5456804000669A868002861D128692D
:1044C800002867D1377A002F32D13900686801AAED
:1044D80003F03AFE00285CDB019B3A001979186862
:1044E80003F045FE002854D16B6A002B00D0984792
:1044F800012163681A68136B8B43136363680F3178
:104508001A68D36A8B43D3622B6A002B53D10022DB
:1045180031002000FFF716FF63681A681023536301
:104528002A7F002A04D162681268D16A0B43D362D9
:10453800002263681B689A636368264A1B685A648A
:10454800337A002B13D1626812689364BFF36F8FBC
:10455800022163681A68136B8B43136363681A68D4
:10456800C023116B9B000B431363BFF36F8FAB69C1
:10457800200098470123327A3374002A21D0002082
:1045880007E0E9688368DB68002B20D0984700289B
:1045980095D0FEBD836869691B68002B00D09847D9
:1045A80032002869696983680C32DB68002B00D106
:1045B80088E7984786E72000F16898470028A6D042
:1045C800E7E762681268116B0B431363D7E758205B
:1045D8004042DEE7FF07000070B580251049114B07
:1045E8008C681B680E6810488A686D02002C08D118
:1045F800002A11D11A002E4209D100681818801A11
:1046080070BD002A0AD02E4201D1A242F5D9046811
:10461800E41804600968F0E71C00F4E71A00F2E700
:1046280010E000E0A4080020A00800200020094AAB
:10463800136A1B021B0A1362074B084A1A60084BCD
:10464800084A1860084B5A600722986019680A439C
:104658001A60704700ED00E0A4080020D430000084
:10466800A0080020D330000010E000E0F8B50024D6
:10467800FFF7B2FF0F4E230031680F4D0A0028687C
:10468800696880185941286069600C4D34600C498C
:104698002E686F68801BFBF7A1FD09492300414381
:1046A8000A0092197B412A606B6001F047F9FEF716
:1046B80043F9F8BDA0080020580600205006002045
:1046C800D4300000F0B53B4B3B4D87B000295FD09C
:1046D800421C08D101212A688A432A60FF22120657
:1046E8001A6007B0F0BD1B680393002302930128EA
:1046F80053DCEFF31083059372B6FFF76DFF0022CA
:104708001100AB6804932D4B1E685F6836184F4143
:104718003000390018605960294B009601971A60DB
:10472800284B1C68009B1B1B93423DDB264F0298BD
:10473800264A78438018C0183900FBF74FFD009BC4
:104748007843E41A80232018DB00984200D218002E
:104758001F4B984200D91800164B184918600138A9
:10476800AB6868600020A860049AD41A9A421ED2E6
:10477800039D621903000C684D6812196B410A60A9
:104788004B60059B002BACD162B6BFF36F8FA8E7D7
:104798001B680393431CA8D10E480F4B984200DDB9
:1047A8001800431E0293A4E78020C000D4E722002B
:1047B800E0E7C046A408002010E000E0580600200A
:1047C800A008002050060020D4300000D33000009C
:1047D80084C6FF003D0500003E05000070B5EFF3FC
:1047E800108572B6084A094B14681B68E41AFFF76B
:1047F800F3FE0019002D02D162B6BFF36F8F044992
:10480800FBF7ECFC70BDC04658060020500600209F
:10481800D4300000F7B50C24444301932A4B00928E
:10482800E4186368089A05000E00934200D262609B
:10483800C0232F1F9B01FFB2E318012F1BD8012EA5
:1048480019D103221A60A3683342FCD0009B226866
:104858005B015340E022134080225201A2181360EA
:104868000321236873400B4013600123B340A268FF
:104878001342FCD01BE0802212011A60134BAA00DD
:10488800D158002907D05869FBF7A8FC431C03201E
:1048980058430338FDD2009B22685B015340E02255
:1048A800134080225201A2181360012FD8D9802307
:1048B80080229B01E31812011A60089B019A636029
:1048C800024BAD00EA50F7BD00800040A808002068
:1048D800F8B51700040029480D001E00FBF77EFC00
:1048E800274B0100FA18274B9A4201D903F00CFA1A
:1048F8003800FBF773FC02009823103A5B009A42D9
:10490800F4D8731E062BF1D8069B013B062BEDD875
:10491800069B32041E0323681643002B0FDA3F223E
:1049280023681340AB420AD1A3681B051B0D8342C1
:1049380005D1EE22E368D2021340B3421CD0124BD9
:104948001249E21853425A4101230C329340104A4B
:104958001360104A13601F000A6897433A1EFAD181
:104968000D4B2132E3182560A0601A602268002AE6
:10497800FCDA0822E6601A60F8BDC046001BB700E2
:1049880080E84BD380F8A9320040FDBF08C0004042
:1049980000E0004000F0004004300000AA22064B6E
:1049A80012011A602F220549DA60054A11605A6817
:1049B800002AFCDA7047C0460040024000B0FA0006
:1049C800006002408023024A9B000B43D362704779
:1049D8000080054010B5084B8200D3181C6840239E
:1049E8006340C0242340054CC00012191360044BD7
:1049F800C018416010BDC04604C0014004D0014049
:104A080000400140064B8000C3181B68C900920093
:104A18000A435A400C231A40024BC01802607047E0
:104A280004C0014004D00140064BC000C3181B68F5
:104A380009075940C0239B051940034BC018016062
:104A48007047C0460440014004500140064BC00076
:104A5800C3181B6809045940C0239B021940034B23
:104A6800C01801607047C04604400140045001402E
:104A7800064BC000C3181B6809025940C0239B009D
:104A88001940034BC01801607047C04604400140FC
:104A980004500140064BC000C3181B680903594065
:104AA800C0239B011940034BC01801607047C046E2
:104AB800044001400450014002238000002903D033
:104AC800024A801803607047014AFAE704E001408F
:104AD80004F00140054B8000C3181B6859400123AE
:104AE8001940034BC01801607047C04604C001401C
:104AF80004D00140054B8000C3181B6809015940C8
:104B080030231940024BC0180160704704C00140AF
:104B180004D001400722C308104080008140024AA7
:104B28003C339B009950704700400140F8B5D023B2
:104B38001B061C68050063425C412F2364429C43AA
:104B48000A4B0F00E4181600FFF7E4FF07232B4079
:104B5800ED089B00AD009F4064198023002E00D112
:104B6800C0239B01E4182760F8BDC04630410140CE
:104B780040238000002903D0024A80180360704750
:104B8800014AFAE704E0014004F0014010B50400CE
:104B9800FDF780FA03480121034A02F0D2FF200002
:104BA80003F096FC148E001044D10010F0B585B0C7
:104BB80005000C0000AFEFF310837B6072B62D4A3E
:104BC8009368FB602C4B042802D82C4B8100CB58EF
:104BD8006E468AB0117C6A46D361294B2948938472
:104BE800294B5061956111621361B121274B103235
:104BF800BB60B86800238901FDF752FBB546002C5D
:104C080007D0E369DB0504D00121214AB86802F026
:104C180098FFFB68002B07D0180003F09AFC0028C7
:104C280002D00378002B00D11A486E468AB06A4633
:104C3800194BD0615361FB689361114B1384174B77
:104C4800136191210023114810328901FDF728FBD7
:104C58002100B5462800FFF799FF7B68002B02D199
:104C680062B6BFF36F8FF868FDF73EFFBD4605B02B
:104C7800F0BDC046D008002053D100107893001032
:104C88000103000069D1001005000001148E001016
:104C980091D1001061D10010B2D1001004000001C0
:104CA800F8B501270A4E83009D5901308400335915
:104CB800AB4200D8F8BD6868002806D0037F3B42A5
:104CC80001D103F009FC0835F1E72B689847FAE7AA
:104CD8008C930010012270B5234B032086B01A7004
:104CE800FFF7DEFF00F07AFF0420FFF7D9FF1F4C23
:104CF80026001F4DAC420ED300F000FBAE4220D37D
:104D080000F00CFBFCF762F801211A4A137B8B4375
:104D1800137306B070BD636A0593236A0493E3694D
:104D28000393A36902936369019323690093E3687A
:104D3800A2686168206800F047F923685C65303430
:104D4800D7E7B26AF36A511C01D1591C05D011008A
:104D58003068194303D100F0BDFB3036CEE7064971
:104D6800183000F05BFDF8E702090020E88C00101D
:104D7800E88C0010D00600204386001010B5034AC6
:104D880003480021121A03F0BFFB10BD04090020DC
:104D9800A001002070B570260125040046430102D9
:104DA800114880220918002086B004950E35039515
:104DB800053565430D4B0590029001900C48F61897
:104DC8002D180C4B30000095520000F0FDF804221D
:104DD800737B2C74934373730134074BE402E41818
:104DE800EE606C6006B070BD0814002060060020FC
:104DF800D008002021850010080C0020F0B5002004
:104E080087B0FFF74DFF214B83F308882049214BDA
:104E18000A6A00251A40C0231B0413430B62FDF7DE
:104E280037FEFDF73FFFFDF799F81B4800F032F910
:104E380003F040FB0120FFF733FF0220FFF730FFAC
:104E480000F09CFA154C164B80225C61154B164EEF
:104E58000593012315490493D200330020000395DC
:104E680002950195009500F0AFF804220700637BD6
:104E780020009343637303F0AAFB2800FFF78AFF1F
:104E8800320039002000FDF7F1FEC046081400206A
:104E980000ED00E0FFFF00FF40070020D0060020E3
:104EA800D008002014D20010DD4C00100815002096
:104EB80070B5EFF3108572B60468A0421AD0002CC2
:104EC80018D062682368002613605A600222200006
:104ED800637B2660934363736660A660183003F0B3
:104EE800C7FB2000E66603F072FB2900084800F0C3
:104EF800D9F970BD8268C3689B1A591E8B419B18EB
:104F08008360002DF5D162B6BFF36F8FF1E7C0461D
:104F18000309002013B50400EFF3108172B680680E
:104F2800002808D00138A060002902D162B6BFF37A
:104F38006F8F002016BD1000184307D1002902D139
:104F480062B6BFF36F8F10204042F3E700920193DF
:104F58002200024800F08AF9ECE7C0460309002065
:104F6800F8B50500EFF3108672B6002302272C6807
:104F7800A54218D0002C16D0626823682000136060
:104F88005A600023627B2360BA4363606273A36044
:104F9800183003F06DFB0B235B42E366200003F03F
:104FA80016FB0123E3E70022AA60934204D03100F4
:104FB800044800F077F9F8BD002EFCD162B6BFF3C3
:104FC8006F8FF8E703090020F0B587B00593030059
:104FD80058338365C365109B072703730423002593
:104FE8000732BA434373D2190F9BBA4383738B18A2
:104FF8000E0085601900C5738561C56104000493BE
:10500800FDF77EFC049BC019B8431F1A0E9B3A009B
:1050180002930D9B310001930C9B20000093059B8C
:10502800FDF70EFE044B65659B68AB4200D01B6E16
:105038003800236607B0F0BDD008002070B5040022
:10504800002086B005900E98119D04900D98109E32
:1050580003900C9802900B9801900A9800902000F9
:10506800FFF7B2FF2B00721C01D1013305D02B00D2
:10507800334305D1200000F02DFA200006B070BDA2
:10508800200032002B000249183000F0C7FBF4E77B
:1050980043860010022310B50400FF33838100F01B
:1050A80097FD014B9C6010BDD00800200B21084AD9
:1050B80049429368D9669866802306495B05486823
:1050C80003434B6062B6BFF36F8F9368D86E704727
:1050D800D008002000ED00E00D2370B5C356427BD8
:1050E800002B38DBD30636D180235B4213431B4C9D
:1050F8004373A3691A49E2698B4207D10160426090
:105108001060E06111E09A42F8D01B68002BF5D0DE
:105118000E250E2645579E57B542F4D0AE42F2DD15
:105128005A680360426010605860A5698D4201D0DA
:10513800002D00D1E568A3685A7BD20605D1DA892B
:105148007F2A02D9AA69002A06D0AB4202D02800D9
:1051580000F0ACFA656170BD6361FCE7D00800201F
:10516800E80800200D2270B582560500437B002A0E
:1051780004DA7F221340437303F0EDF90D4E0E4A13
:10518800B469B368944201D0002C00D1F468AB42F2
:1051980008D05A7BD20605D1DA897F2A02D9A269BA
:1051A800002A05D0A34202D0200000F07FFA230095
:1051B800736170BDD0080020E808002010B5511CAC
:1051C80001D1591C03D00249183000F027FB10BD4B
:1051D800438600100D2270B582560400437B002AD6
:1051E80004DA7F221340437303F0B5F98023627B0E
:1051F8005B4213431B4D6373AB691B49EA698B42DE
:1052080007D1216062601460EC6111E09A42F8D025
:105218001B68002BF5D00E200E2620569E57B04254
:10522800F4D08642F2DD5A682360626014605C60E4
:10523800AE69AB688E4201D0002E00D1EE68A34261
:1052480008D05A7BD20605D1DA897F2A02D9B269F9
:10525800002A05D0B34202D0300000F027FA33000C
:105268006B6170BDD0080020E808002070B50C0004
:1052780011000A4A0A4B90681860EFF3108372B65F
:105288009568280003F07AF9049A059B2800FFF72F
:1052980095FF2000FFF70AFF70BDC046D008002028
:1052A800F008002010B500290AD1EFF30580002886
:1052B80007D1064B9A685B699A4202D0FFF7F6FE5F
:1052C80010BD62B6BFF36F8FFAE7C046D008002062
:1052D80010B500280AD1EFF30580002807D1064B46
:1052E8005A699B689A4202D0FFF7E0FE10BD62B689
:1052F800BFF36F8FFAE7C046D0080020EFF31081A4
:1053080072B6054B9A68D37B013BD373002902D14F
:1053180062B6BFF36F8F7047D008002070B5EFF307
:10532800108672B6134DAB68DA7B0132DA73AC695A
:10533800114A944201D0002C00D1EC685A7BD20665
:1053480005D1DA897F2A02D9A269002A05D0A342A9
:1053580002D0200000F0AAF923006B61002E02D1D0
:1053680062B6BFF36F8FEFF3108072B6FFF7B0FF2E
:1053780070BDC046D0080020E8080020024B034A50
:105388009A61DA617047C046D0080020E80800201A
:1053980070B5EFF3108572B61C4CA168E3690A6812
:1053A800CB1A581E834149685B420A60516013401A
:1053B800E169A268002B05D1154B516013600A60A2
:1053C800E2610CE00E200E2610569E57B04218D00F
:1053D800864216DD5968136051600A605A60A669F2
:1053E8000B4B9E4201D0002E00D1E668A3689E4276
:1053F80002D0300000F05AF928006661FFF756FE27
:1054080070BD8B42D8D01B68D4E7C046D0080020B6
:10541800E8080020F8B5030007000C000B4303D18F
:10542800FFF7B6FF0020F8BDEFF3108672B6134DF4
:10543800134BA8681860FFF795FEA86823003A0088
:105448001049183000F0EAF90423AA680400517BD7
:1054580030000B435373FFF729FEAB689A6A002AA2
:10546800E0D18022DB6A12069342DBD103F026F9F1
:10547800201AC343DB171840D5E7C046D0080020E0
:10548800F00800204386001070B504000D00FFF7F7
:10549800C1FF03002000621C01D1013513D01800A0
:1054A800D9170922002380185941002901D1092858
:1054B8000AD904290AD802D103000B3306D80A22D4
:1054C8000023FAF797FF70BD0800FCE70048FAE7E9
:1054D800FFFFFF7F70B50400EFF3108572B6042656
:1054E800437B33420DD0183003F0C2F8637B2000B1
:1054F800B3436373FFF7F0FD29000548FFF7D2FEB9
:1055080070BD002DFCD162B6BFF36F8FF8E7C046BF
:1055180003090020014B98687047C046D008002056
:10552800F0B5037B85B004000393EFF31083019378
:1055380072B6019B02930823427B1A4207D0019B53
:10554800002B02D162B6BFF36F8F05B0F0BD190012
:10555800114348B2002857DB6173A368002B02D0BF
:10556800200003F000F820002600183003F080F82F
:105578005836A56DAE4201D0002D4DD1304F0025D3
:10558800BB689C4204D1EFF305856A1E9541EDB2D4
:10559800BE692C4A964201D0002E00D1FE68B34263
:1055A80002D0300000F082F820007E6102F09CFBFF
:1055B800002D02D02448FFF76DFDBB689C4238D10E
:1055C800EFF30583002B34D1237BDB070FD5019B39
:1055D800002B02D162B6BFF36F8F62B6BFF36F8F35
:1055E8000423181C02DFEFF3108372B602930298AB
:1055F800FFF75CFD039BDB07A7D562B6BFF36F8F90
:105608000423181C02DFA0E77F210A40134320006F
:10561800637302F0A0FFA0E7280002F0A4FF2800AF
:10562800183003F025F800232800EB66FFF754FD37
:105638009FE7019B002BDDD162B6BFF36F8FD9E7DF
:10564800D0080020E8080020400700200121044B72
:10565800044AC01A044BC0104343D1547047C04693
:10566800B007002003090020ABAAAAAAC289030038
:1056780000207F2A11D80A4A106800280DD00E2170
:10568800084A595612680020914206DB5A7BD20616
:1056980003D10548181A431E984101231840704742
:1056A80020010020F40800206006002070B51824AE
:1056B8000C4B05001E7C0C4B7443E418200002F0D0
:1056C800D7FF0022094B28009A55FFF7CFFF002883
:1056D80007D0074B20001A680649013AD31700F093
:1056E8009DF870BDD0080020B007002003090020F5
:1056F800200100205556001070B5EFF3108572B6E2
:10570800104A114B94681868A04207D1FFF7CEFFE2
:10571800002D02D162B6BFF36F8F70BD00211960F2
:10572800127C0A4B9B5C8B42F2D02000FFF79EFF55
:105738000028EDD0637BDB0602D12000FFF74AFD8D
:105748002000E3E7D0080020F0080020030900202B
:105758000648074A10B5121A064902F0D9FE064A49
:1057680006480749121A02F0D3FE10BD00000020B7
:105778009C01002064D200100000002000000020DE
:1057880064D20010024B1868984200D1002070477C
:105798002401002070B50600FFF7F4FF002810D0A0
:1057A800026943693400F517121BAB41002B08DC72
:1057B80003D1802109068A4203D2D843C01710407A
:1057C80070BD0148FCE7C046FFFFFF7F002010B511
:1057D800034B1B68834201D1FFF700F810BDC04698
:1057E800F808002030B500280ED00B4B5B689842B3
:1057F8000AD00168002907D00A694B69046945691C
:1058080012196B410A614B610368426813605A6060
:1058180000230360436030BD24010020F0B504007C
:1058280015001E0085B0531C02D1731C00D17CE00A
:10583800A160EFF31083039372B6002E26DBFFF707
:10584800C5FF00210090012040197141009AD3172B
:1058580012184B4136492261636108684968121879
:105868004B411E00150001230293FFF78BFF070031
:10587800304B9C465B680193002F1DD16346236023
:10588800019B63601C6063465C6027E0284B1868D6
:10589800596802225242D317121A8B41521BB34144
:1058A8001100002B04DC01D1002A01D101210023C1
:1058B800636121610023D7E73869796922696369DF
:1058C800994202DC28D1904226D9801A99417B68F6
:1058D80038617961636027601C607C60FFF752FF64
:1058E80084420FD1144B1B68002B0BD1029B002B59
:1058F80002D1FFF76BFF00900098FFF74BFF0021E4
:10590800FEF7E0FE039B002B02D162B6BFF36F8F58
:105918002800310005B0F0BD121A8B412261636185
:10592800019B9F42AAD03F68A6E700250026EFE723
:10593800C807002024010020F8080020F0B587B02F
:10594800EFF3108372B601932F4B1860FFF71AFF1D
:105958002E4F04003A687B68029203932A4B9C46B8
:105968001D6800280FD042690669EB179A4202DCCD
:1059780024D1AE4222D91900226963692800121A7B
:105988008B4122616361029803992A00EB17121870
:105998004B4100243A607B60634620001C60FFF79F
:1059A800F9FE2100FEF78EFE019BA34202D162B6EA
:1059B800BFF36F8FFFF7A0FE07B0F0BDF317049693
:1059C8000593049A059B029803998018594100236E
:1059D80000220E4D22616361286069602000FFF794
:1059E80001FF019B002B02D162B6BFF36F8F20002D
:1059F800A3689847EFF3108372B6034A01931368BC
:105A08009B1B1360A2E7C046F8080020C8070020C7
:105A180010B5EFF3108472B6FFF7D8FE02000649FE
:105A2800C3170868496880185941002C02D162B62A
:105A3800BFF36F8F10BDC046C8070020F7B504003C
:105A4800EFF3108572B603680195002B05D0002D81
:105A58005FD162B6BFF36F8F5BE0826AC36A0021D1
:105A6800012080185941002901D1012836D9002B7D
:105A780004DC01D1002A01D101220023012676424B
:105A8800F717B6185F4102F01DFE012200238018A7
:105A9800594180197941002902DC3BD1002839D0CD
:105AA80002F010FE00230122801859418019794123
:105AB800244B994201D1033030D802F003FE012271
:105AC80000238018594102225242D3178019794184
